:100000000C942A000C943F000C943F000C943F0089
:100010000C943F000C943F000C943F000C943F0064
:100020000C943F000C943F000C943F000C943F0054
:100030000C943F000C943F000C943F000C943F0044
:100040000C943F000C943F000C943F000C943F0034
:100050000C943F0011241FBECFE5D8E0DEBFCDBF1A
:1000600010E0A0E6B0E0E6E1F7E102C005900D92F5
:10007000A039B107D9F70E94C50A0C94890B0C94DA
:100080000000EF92FF920F931F937B018C0120E001
:1000900030E040E05FE40E94410388238CF0C80117
:1000A000B70120E030E040E05FE40E94B9010E9427
:1000B000A1039B01AC01205030404040504806C095
:1000C000C801B7010E94A1039B01AC01B901CA019B
:1000D0001F910F91FF90EF900895A0E0B0E0E3E74B
:1000E000F0E00C94520BDC012B01FA019C91923050
:1000F00008F439C1EB018881823008F433C19430AF
:1001000069F4843009F02FC111969C91119789816F
:10011000981709F428C1A0E6B0E025C1843009F49D
:1001200021C18230A9F4923009F01DC19A01AD01BC
:1001300088E0EA010990AE01E90109929E0181502F
:10014000C1F7E201898111969C918923818308C1BD
:10015000923009F407C112962D903C901397EB0151
:100160008A819B811496AD90BD90CD90DC901797BD
:10017000EC80FD800E811F819101281B390BB90194
:1001800037FF04C066277727621B730B6032710547
:100190000CF061C0121613066CF537014801062EEB
:1001A00004C096948794779467940A94D2F721E0D8
:1001B00030E040E050E004C0220F331F441F551FC1
:1001C0006A95D2F721503040404050402E213F21C7
:1001D00040235123211531054105510521F021E02E
:1001E00030E040E050E079018A01E628F72808294C
:1001F00019293CC0232BD1F1260E371E35014601AB
:10020000062E04C096948794779467940A94D2F744
:1002100021E030E040E050E004C0220F331F441FD3
:10022000551F6A95D2F721503040404050402A2156
:100230003B214C215D21211531054105510521F05E
:1002400021E030E040E050E059016A01A628B728DB
:10025000C828D9280BC0821593052CF01C01AA24AC
:10026000BB24650103C0EE24FF24870111969C91F5
:10027000D20111968C91981709F445C0992339F051
:10028000A80197012A193B094C095D0906C0A6017E
:1002900095012E193F09400B510B57FD08C01182E3
:1002A0003382228224833583468357831DC081E0B5
:1002B00081833382228288279927DC01821B930B5A
:1002C000A40BB50B84839583A683B7830DC0220F3F
:1002D000331F441F551F24833583468357838281F0
:1002E000938101979383828324813581468157814D
:1002F000DA01C9010197A109B1098F5F9F4FAF4F83
:10030000BF4328F30BC0918333822282EA0CFB1C8B
:100310000C1D1D1DE482F5820683178383E0808314
:10032000248135814681578157FF1AC0C901AA2708
:1003300097FDA095BA2F81709070A070B0705695FF
:10034000479537952795822B932BA42BB52B848328
:100350009583A683B7838281938101969383828359
:10036000DF0101C0D201CD01CDB7DEB7E2E10C94CF
:100370006E0BA0E2B0E0EFEBF1E00C945E0B698352
:100380007A838B839C832D833E834F835887E9E058
:10039000EE2EF12CEC0EFD1ECE010196B7010E944F
:1003A000CA048E010F5E1F4FCE010596B8010E9450
:1003B000CA048A8991E089278A8BC701B801AE01F6
:1003C000475E5F4F0E946D000E94F503A096E6E035
:1003D0000C947A0BA0E2B0E0E0EFF1E00C945E0B3D
:1003E00069837A838B839C832D833E834F835887D5
:1003F000F9E0EF2EF12CEC0EFD1ECE010196B701B7
:100400000E94CA048E010F5E1F4FCE010596B801EF
:100410000E94CA04C701B801AE01475E5F4F0E9447
:100420006D000E94F503A096E6E00C947A0BA0E222
:10043000B0E0EDE1F2E00C94520B69837A838B8398
:100440009C832D833E834F835887CE010196BE0146
:10045000675F7F4F0E94CA04CE010596BE016F5EA2
:100460007F4F0E94CA049985923088F08989823032
:10047000C8F0943019F4823051F404C0843029F467
:10048000923081F480E690E0C6C0923049F420E0DA
:100490009A858A89981321E02A87CE010996BBC0E4
:1004A000823049F420E09A858A89981321E02A8BCA
:1004B000CE014196B0C02D843E844F8458886D880B
:1004C0007E888F88988CEE24FF248701AA24BB2481
:1004D000650140E050E060E070E0E0E0F0E0C10184
:1004E00081709070892BE9F0E60CF71C081D191D2E
:1004F0009A01AB012A0D3B1D4C1D5D1D80E090E073
:10050000A0E0B0E0E614F7040805190520F481E046
:1005100090E0A0E0B0E0BA01A901480F591F6A1F9E
:100520007B1FAA0CBB1CCC1CDD1C97FE08C081E005
:1005300090E0A0E0B0E0A82AB92ACA2ADB2A3196C6
:10054000E032F10549F0660C771C881C991C569422
:10055000479437942794C3CFFA85EA892B893C893D
:100560008B859C85280F391F2E5F3F4F17C0CA010E
:1005700081709070892B61F016950795F794E79438
:1005800080E090E0A0E0B0E8E82AF92A0A2B1B2BD3
:1005900076956795579547952F5F3F4F77FDE7CF46
:1005A0000CC0440F551F661F771F17FD4160EE0CEE
:1005B000FF1C001F111F21503040403090E05907B0
:1005C00090E0690790E4790760F32B8F3C8FDB01A3
:1005D000CA018F779070A070B07080349105A1052A
:1005E000B10561F447FD0AC0E114F10401051105EC
:1005F00029F0405C5F4F6F4F7F4F40781A8EFE1797
:1006000011F081E08A8F4D8F5E8F6F8F78A383E02A
:10061000898FCE0149960E94F503A096E2E10C94E1
:100620006E0BA8E1B0E0E7E1F3E00C945E0B6983A8
:100630007A838B839C832D833E834F83588789E005
:10064000E82EF12CEC0EFD1ECE010196B7010E94A2
:10065000CA048E010F5E1F4FCE010596B8010E949D
:10066000CA048985823040F08989823028F0C70128
:10067000B8010E94420501C08FEF6896E6E00C9435
:100680007A0BA8E1B0E0E7E4F3E00C945E0B698339
:100690007A838B839C832D833E834F83588789E0A5
:1006A000E82EF12CEC0EFD1ECE010196B7010E9442
:1006B000CA048E010F5E1F4FCE010596B8010E943D
:1006C000CA048985823040F08989823028F0C701C8
:1006D000B8010E94420501C08FEF6896E6E00C94D5
:1006E0007A0BA8E1B0E0E7E7F3E00C945E0B6983D6
:1006F0007A838B839C832D833E834F83588789E045
:10070000E82EF12CEC0EFD1ECE010196B7010E94E1
:10071000CA048E010F5E1F4FCE010596B8010E94DC
:10072000CA048985823040F08989823028F0C70167
:10073000B8010E94420501C081E06896E6E00C9491
:100740007A0BACE0B0E0E7EAF3E00C94620B69836B
:100750007A838B839C83CE010196BE016B5F7F4FB2
:100760000E94CA048D81823061F1823050F1843060
:1007700021F48E81882351F12EC02F81388537FDD9
:1007800020C06E812F3131051CF06623F9F023C0A3
:100790008EE190E0821B930B29853A854B855C8521
:1007A00004C056954795379527958A95D2F76623C5
:1007B000B1F050954095309521953F4F4F4F5F4F89
:1007C0000EC020E030E040E050E009C02FEF3FEFE6
:1007D0004FEF5FE704C020E030E040E050E8B901AF
:1007E000CA012C96E2E00C947E0BDF92EF92FF920E
:1007F0000F931F93FC01E480F58006811781D1805F
:100800008081823048F480E090E0A0E1B0E0E82A06
:10081000F92A0A2B1B2BA5C0843009F49FC0823013
:1008200021F4EE24FF24870105C0E114F104010541
:10083000110519F4E0E0F0E096C0628173819FEF4A
:10084000623879070CF05BC022E83FEF261B370BBC
:100850002A3131052CF020E030E040E050E02AC0A1
:10086000B801A701022E04C0769567955795479564
:100870000A94D2F781E090E0A0E0B0E004C0880FD5
:10088000991FAA1FBB1F2A95D2F70197A109B10989
:100890008E219F21A023B1230097A105B10521F04E
:1008A00081E090E0A0E0B0E09A01AB01282B392B69
:1008B0004A2B5B2BDA01C9018F779070A070B07062
:1008C00080349105A105B10539F427FF09C0205CEA
:1008D0003F4F4F4F5F4F04C0215C3F4F4F4F5F4F23
:1008E000E0E0F0E02030A0E03A07A0E04A07A0E412
:1008F0005A0710F0E1E0F0E079018A0127C0603882
:10090000710564F5FB01E158FF4FD801C7018F77EE
:100910009070A070B07080349105A105B10539F4D4
:10092000E7FE0DC080E490E0A0E0B0E004C08FE3FB
:1009300090E0A0E0B0E0E80EF91E0A1F1B1F17FFB1
:1009400005C016950795F794E794319687E01695BC
:100950000795F794E7948A95D1F705C0EE24FF2414
:100960008701EFEFF0E06E2F679566276795902F70
:100970009F77D794DD24D7948E2F8695492F462BC9
:10098000582F5D29B701CA011F910F91FF90EF9079
:10099000DF900895FC01DB01408151812281622FAB
:1009A0006F7770E0221F2227221F9381892F880FE3
:1009B000822B282F30E0991F9927991F11969C931D
:1009C000119721153105A9F54115510561057105ED
:1009D00011F482E037C082E89FEF13969C938E93C8
:1009E00012979A01AB0167E0220F331F441F551F76
:1009F0006A95D1F783E08C930DC0220F331F441FFB
:100A0000551F12968D919C911397019713969C9365
:100A10008E931297203080E0380780E0480780E40A
:100A2000580758F314962D933D934D935C93179765
:100A300008952F3F310579F4411551056105710580
:100A400019F484E08C93089564FF03C081E08C93D3
:100A500012C01C9210C02F57304013963C932E9317
:100A6000129783E08C9387E0440F551F661F771F12
:100A70008A95D1F7706414964D935D936D937C9332
:100A8000179708951F93DC01FB019C91923008F4A5
:100A900047C08081823008F443C0943051F41196ED
:100AA0001C91843099F58181682F70E0611B710978
:100AB0003FC0843021F0923031F48230B9F181812D
:100AC000882389F12DC011961C9111978230F1F085
:100AD00081811817D9F412962D913C911397828138
:100AE00093818217930794F028173907BCF0149666
:100AF0008D919D910D90BC91A02D248135814681D1
:100B00005781281739074A075B0718F4112341F06A
:100B10000AC082179307A407B50740F4112319F000
:100B200061E070E005C06FEF7FEF02C060E070E051
:100B3000CB011F910895DF93CF9300D000D00F9287
:100B4000CDB7DEB789836A834B838981282F30E054
:100B50003D832C838C819D818130910509F447C0B0
:100B60002C813D81223031052CF48C819D810097B0
:100B700071F0CBC02C813D812230310509F467C072
:100B80008C819D818330910509F491C0BEC08B8119
:100B90008823A9F4AAE3B0E0EAE3F0E08081482FDB
:100BA0008A81282F30E081E090E0022E02C0880F79
:100BB000991F0A94E2F7809584238C93A6C08B81B9
:100BC000813009F0A2C0AAE3B0E0EAE3F0E080815E
:100BD000482F8A81282F30E081E090E0022E02C069
:100BE000880F991F0A94E2F7842B8C938EC08B8117
:100BF0008823A9F4A7E3B0E0E7E3F0E08081482F81
:100C00008A81282F30E081E090E0022E02C0880F18
:100C1000991F0A94E2F7809584238C9376C08B8188
:100C2000813009F072C0A7E3B0E0E7E3F0E0808133
:100C3000482F8A81282F30E081E090E0022E02C008
:100C4000880F991F0A94E2F7842B8C935EC08B81E6
:100C50008823A9F4A4E3B0E0E4E3F0E08081482F26
:100C60008A81282F30E081E090E0022E02C0880FB8
:100C7000991F0A94E2F7809584238C9346C08B8158
:100C8000813009F042C0A4E3B0E0E4E3F0E0808109
:100C9000482F8A81282F30E081E090E0022E02C0A8
:100CA000880F991F0A94E2F7842B8C932EC08B81B6
:100CB0008823A9F4A1E3B0E0E1E3F0E08081482FCC
:100CC0008A81282F30E081E090E0022E02C0880F58
:100CD000991F0A94E2F7809584238C9316C08B8128
:100CE000813099F4A1E3B0E0E1E3F0E08081482FA6
:100CF0008A81282F30E081E090E0022E02C0880F28
:100D0000991F0A94E2F7842B8C930F900F900F9009
:100D10000F900F90CF91DF910895DF93CF9300D084
:100D200000D0CDB7DEB789836A838981282F30E070
:100D30003C832B838B819C818130910521F12B8118
:100D40003C81223031052CF48B819C81009761F02D
:100D500046C02B813C812230310521F18B819C8161
:100D60008330910571F13BC08A81882321F4EAE345
:100D7000F0E0108234C08A81813089F5EAE3F0E046
:100D80008FEF80832CC08A81882321F4E7E3F0E091
:100D9000108225C08A81813011F5E7E3F0E08FEF02
:100DA00080831DC08A81882321F4E4E3F0E010826F
:100DB00016C08A81813099F4E4E3F0E08FEF8083FC
:100DC0000EC08A81882321F4E1E3F0E0108207C09D
:100DD0008A81813021F4E1E3F0E08FEF80830F908E
:100DE0000F900F900F90CF91DF910895DF93CF93E5
:100DF00000D000D00F92CDB7DEB789836A834B83D2
:100E00008981282F30E03D832C838C819D81813026
:100E1000910509F447C02C813D81223031052CF425
:100E20008C819D81009771F0CBC02C813D81223057
:100E3000310509F467C08C819D818330910509F4E7
:100E400091C0BEC08B818130A1F4ABE3B0E0EBE395
:100E5000F0E08081482F8A81282F30E081E090E007
:100E6000022E02C0880F991F0A94E2F7842B8C93FC
:100E7000A7C08B81882309F0A3C0ABE3B0E0EBE30C
:100E8000F0E08081482F8A81282F30E081E090E0D7
:100E9000022E02C0880F991F0A94E2F780958423DE
:100EA0008C938EC08B818130A1F4A8E3B0E0E8E39D
:100EB000F0E08081482F8A81282F30E081E090E0A7
:100EC000022E02C0880F991F0A94E2F7842B8C939C
:100ED00077C08B81882309F073C0A8E3B0E0E8E312
:100EE000F0E08081482F8A81282F30E081E090E077
:100EF000022E02C0880F991F0A94E2F7809584237E
:100F00008C935EC08B818130A1F4A5E3B0E0E5E372
:100F1000F0E08081482F8A81282F30E081E090E046
:100F2000022E02C0880F991F0A94E2F7842B8C933B
:100F300047C08B81882309F043C0A5E3B0E0E5E317
:100F4000F0E08081482F8A81282F30E081E090E016
:100F5000022E02C0880F991F0A94E2F7809584231D
:100F60008C932EC08B818130A1F4A2E3B0E0E2E348
:100F7000F0E08081482F8A81282F30E081E090E0E6
:100F8000022E02C0880F991F0A94E2F7842B8C93DB
:100F900017C08B818823A1F4A2E3B0E0E2E3F0E084
:100FA0008081482F8A81282F30E081E090E0022E56
:100FB00002C0880F991F0A94E2F7809584238C93CE
:100FC0000F900F900F900F900F90CF91DF91089599
:100FD000DF93CF9300D000D0CDB7DEB789836A838B
:100FE0008981282F30E03C832B838B819C81813049
:100FF0009105D1F02B813C81223031052CF48B817D
:101000009C81009761F01EC02B813C81223031050C
:1010100081F08B819C818330910581F013C0EBE3DB
:10102000F0E08A8180830EC0E8E3F0E08A8180836B
:1010300009C0E5E3F0E08A81808304C0E2E3F0E0E8
:101040008A8180830F900F900F900F90CF91DF9146
:101050000895DF93CF9300D000D00F92CDB7DEB7C5
:101060008A836B8319828A81282F30E03D832C8309
:101070004C815D814130510509F463C08C819D81B3
:101080008230910534F42C813D812115310571F0B8
:1010900037C14C815D814230510509F49DC08C817E
:1010A0009D818330910509F4E2C02AC1EAE3F0E0B2
:1010B0008081282F30E08B81882F90E0A90102C029
:1010C000559547958A95E2F7CA01817090708823FB
:1010D00091F0EBE3F0E08081282F30E08B81882FC6
:1010E00090E0A90102C0559547958A95E2F7CA019B
:1010F0008170898305C1EAE3F0E08081282F30E028
:101100008B81882F90E0A90102C0559547958A955B
:10111000E2F7CA0181709070009709F0F1C0E9E32D
:10112000F0E08081282F30E08B81882F90E0A901AA
:1011300002C0559547958A95E2F7CA018170898367
:10114000DFC0E7E3F0E08081282F30E08B81882F3B
:1011500090E0A90102C0559547958A95E2F7CA012A
:1011600081709070882391F0E8E3F0E08081282F6F
:1011700030E08B81882F90E0A90102C055954795FA
:101180008A95E2F7CA0181708983BAC0E7E3F0E08B
:101190008081282F30E08B81882F90E0A90102C048
:1011A000559547958A95E2F7CA018170907000972E
:1011B00009F0A6C0E6E3F0E08081282F30E08B81C3
:1011C000882F90E0A90102C0559547958A95E2F7CE
:1011D000CA018170898394C0E4E3F0E08081282F04
:1011E00030E08B81882F90E0A90102C0559547958A
:1011F0008A95E2F7CA0181709070882391F0E5E347
:10120000F0E08081282F30E08B81882F90E0A901C9
:1012100002C0559547958A95E2F7CA018170898386
:101220006FC0E4E3F0E08081282F30E08B81882FCD
:1012300090E0A90102C0559547958A95E2F7CA0149
:1012400081709070009709F05BC0E3E3F0E080816B
:10125000282F30E08B81882F90E0A90102C055959E
:1012600047958A95E2F7CA018170898349C0E1E315
:10127000F0E08081282F30E08B81882F90E0A90159
:1012800002C0559547958A95E2F7CA018170907022
:10129000882391F0E2E3F0E08081282F30E08B8119
:1012A000882F90E0A90102C0559547958A95E2F7ED
:1012B000CA018170898324C0E1E3F0E08081282F96
:1012C00030E08B81882F90E0A90102C055954795A9
:1012D0008A95E2F7CA0181709070009789F4E0E383
:1012E000F0E08081282F30E08B81882F90E0A901E9
:1012F00002C0559547958A95E2F7CA0181708983A6
:1013000089810F900F900F900F900F90CF91DF91E8
:101310000895DF93CF9300D000D00F92CDB7DEB702
:101320008A836B8319828A81282F30E03D832C8346
:101330008C819D818130910529F12C813D81223064
:1013400031052CF48C819D81009761F04AC02C817D
:101350003D812230310531F18C819D8183309105B1
:1013600089F13FC08B81882329F4E9E3F0E0808193
:10137000898337C08B818130A1F5EBE3F0E0808178
:1013800089832FC08B81882329F4E6E3F0E08081F4
:10139000898327C08B81813021F5E8E3F0E08081EB
:1013A00089831FC08B81882329F4E3E3F0E08081E7
:1013B000898317C08B818130A1F4E5E3F0E080815F
:1013C00089830FC08B81882329F4E0E3F0E08081DA
:1013D000898307C08B81813021F4E2E3F0E08081D2
:1013E000898389810F900F900F900F900F90CF916C
:1013F000DF910895DF93CF9300D0CDB7DEB71A8287
:10140000198210C089819A81880F991FFC01E458C4
:10141000FF4F808191810E94AB0A89819A81019658
:101420009A83898389819A818A3091055CF30F9030
:101430000F90CF91DF910895DF93CF9300D0CDB778
:10144000DEB79A83898386E090E09093830080934F
:10145000820089819A8190938900809388000E94FC
:10146000FA090F900F90CF91DF910895DF93CF93FA
:1014700000D000D0CDB7DEB79A83898383E090E0B7
:10148000909383008093820089819A818F3F910598
:1014900009F03CF489819A819093890080938800B7
:1014A0002EC089819A819C838B832B813C8133233D
:1014B00034F44B815C8141505F4F5C834B832B81C3
:1014C0003C81832F992787FD9A959093870080937D
:1014D0008600209188003091890080E09FEFA9016B
:1014E000489F9001499F300D589F300D11248981EC
:1014F0009A81820F931F90938900809388000E94A5
:10150000FA090F900F900F900F90CF91DF910895EF
:10151000DF93CF93CDB7DEB7EBE2F0E01082AAE223
:10152000B0E0EAE2F0E0808188608C93AAE2B0E06B
:10153000EAE2F0E080818B7F8C93E0E4F0E086E8E3
:101540008083E0E4F0E01082E9E2F0E08DE4808363
:10155000CF91DF910895DF93CF930F92CDB7DEB790
:101560008983EBE2F0E08081829586958770882FF1
:1015700090E0817090700097A1F3ECE2F0E0898137
:1015800080830F90CF91DF910895DF93CF93CDB7F4
:10159000DEB761970FB6F894DEBF0FBECDBF82E015
:1015A00060E00E948D0682E06FEF0E94E8070E94D3
:1015B000880A8EE190E00E941C0A0E94FA0980E0ED
:1015C00090E0AAEFB4E48B879C87AD87BE876B85DC
:1015D0007C858D859E8520E030E84BE355E40E94B4
:1015E0001702DC01CB018F839887A987BA876F81A7
:1015F000788589859A8520E030E040E85FE30E94A5
:10160000710388232CF481E090E09E838D833FC09A
:101610006F81788589859A8520E03FEF4FE757E411
:101620000E94110318164CF56B857C858D859E856F
:1016300020E030E040E251E40E941702DC01CB01DF
:10164000BC01CD010E944100DC01CB019E838D8352
:101650000FC08CE291E09C838B838B819C810197EE
:10166000F1F79C838B838D819E8101979E838D836F
:101670008D819E81009769F7A0CF6F8178858985DC
:101680009A850E944100DC01CB019E838D838D8170
:101690009E819A83898389819A810197F1F79A8340
:1016A00089838BCF2F923F924F925F926F927F925E
:1016B0008F929F92AF92BF92CF92DF92EF92FF9262
:1016C0000F931F93CF93DF93CDB7DEB7CA1BDB0B0E
:1016D0000FB6F894DEBF0FBECDBF09942A883988B3
:1016E00048885F846E847D848C849B84AA84B984BA
:1016F000C884DF80EE80FD800C811B81AA81B981C6
:10170000CE0FD11D0FB6F894DEBF0FBECDBFED01D9
:061710000895F894FFCFDC
:1017160000000000000000007E00FF000600000040
:10172600000000000000EF00000000007E00FF0047
:1017360006000300000000000100FF00E600EF00C5
:00000001FF
